{
  "contractName": "VotingSystem",
  "abi": [
    {
      "inputs": [],
      "payable": false,
      "stateMutability": "nonpayable",
      "type": "constructor"
    },
    {
      "constant": true,
      "inputs": [],
      "name": "countOfCandidates",
      "outputs": [
        {
          "internalType": "uint256",
          "name": "",
          "type": "uint256"
        }
      ],
      "payable": false,
      "stateMutability": "view",
      "type": "function"
    },
    {
      "constant": true,
      "inputs": [],
      "name": "owner",
      "outputs": [
        {
          "internalType": "address",
          "name": "",
          "type": "address"
        }
      ],
      "payable": false,
      "stateMutability": "view",
      "type": "function"
    },
    {
      "constant": false,
      "inputs": [
        {
          "internalType": "string",
          "name": "_name",
          "type": "string"
        }
      ],
      "name": "addCandidate",
      "outputs": [],
      "payable": false,
      "stateMutability": "nonpayable",
      "type": "function"
    },
    {
      "constant": false,
      "inputs": [
        {
          "internalType": "uint256",
          "name": "_index",
          "type": "uint256"
        }
      ],
      "name": "voteForCandidateAt",
      "outputs": [],
      "payable": false,
      "stateMutability": "nonpayable",
      "type": "function"
    },
    {
      "constant": true,
      "inputs": [
        {
          "internalType": "uint256",
          "name": "_index",
          "type": "uint256"
        }
      ],
      "name": "getCandidateAt",
      "outputs": [
        {
          "components": [
            {
              "internalType": "string",
              "name": "name",
              "type": "string"
            },
            {
              "internalType": "uint256",
              "name": "voteCount",
              "type": "uint256"
            }
          ],
          "internalType": "struct VotingSystem.Candidate",
          "name": "",
          "type": "tuple"
        }
      ],
      "payable": false,
      "stateMutability": "view",
      "type": "function"
    }
  ],
  "bytecode": "0x608060405234801561001057600080fd5b50336000806101000a81548173ffffffffffffffffffffffffffffffffffffffff021916908373ffffffffffffffffffffffffffffffffffffffff1602179055506108f4806100606000396000f3fe608060405234801561001057600080fd5b50600436106100575760003560e01c8063462e91ec1461005c57806356f682ae146100785780638da5cb5b146100965780639ad39552146100b4578063a5a92680146100e4575b600080fd5b61007660048036036100719190810190610560565b610100565b005b610080610211565b60405161008d919061076a565b60405180910390f35b61009e610217565b6040516100ab91906106ed565b60405180910390f35b6100ce60048036036100c991908101906105a1565b61023c565b6040516100db9190610748565b60405180910390f35b6100fe60048036036100f991908101906105a1565b61031d565b005b6000809054906101000a900473ffffffffffffffffffffffffffffffffffffffff1673ffffffffffffffffffffffffffffffffffffffff163373ffffffffffffffffffffffffffffffffffffffff161461018f576040517f08c379a000000000000000000000000000000000000000000000000000000000815260040161018690610728565b60405180910390fd5b6002604051806040016040528083815260200160008152509080600181540180825580915050906001820390600052602060002090600202016000909192909190915060008201518160000190805190602001906101ee929190610438565b506020820151816001015550505060036000815480929190600101919050555050565b60035481565b6000809054906101000a900473ffffffffffffffffffffffffffffffffffffffff1681565b6102446104b8565b6002828154811061025157fe5b9060005260206000209060020201604051806040016040529081600082018054600181600116156101000203166002900480601f0160208091040260200160405190810160405280929190818152602001828054600181600116156101000203166002900480156103035780601f106102d857610100808354040283529160200191610303565b820191906000526020600020905b8154815290600101906020018083116102e657829003601f168201915b505050505081526020016001820154815250509050919050565b600160003373ffffffffffffffffffffffffffffffffffffffff1673ffffffffffffffffffffffffffffffffffffffff16815260200190815260200160002060010160009054906101000a900460ff16156103ad576040517f08c379a00000000000000000000000000000000000000000000000000000000081526004016103a490610708565b60405180910390fd5b600281815481106103ba57fe5b90600052602060002090600202016001016000815480929190600101919050555060018060003373ffffffffffffffffffffffffffffffffffffffff1673ffffffffffffffffffffffffffffffffffffffff16815260200190815260200160002060010160006101000a81548160ff02191690831515021790555050565b828054600181600116156101000203166002900490600052602060002090601f016020900481019282601f1061047957805160ff19168380011785556104a7565b828001600101855582156104a7579182015b828111156104a657825182559160200191906001019061048b565b5b5090506104b491906104d2565b5090565b604051806040016040528060608152602001600081525090565b6104f491905b808211156104f05760008160009055506001016104d8565b5090565b90565b600082601f83011261050857600080fd5b813561051b610516826107b2565b610785565b9150808252602083016020830185838301111561053757600080fd5b610542838284610847565b50505092915050565b60008135905061055a8161089a565b92915050565b60006020828403121561057257600080fd5b600082013567ffffffffffffffff81111561058c57600080fd5b610598848285016104f7565b91505092915050565b6000602082840312156105b357600080fd5b60006105c18482850161054b565b91505092915050565b6105d38161080b565b82525050565b60006105e4826107de565b6105ee81856107e9565b93506105fe818560208601610856565b61060781610889565b840191505092915050565b600061061f6017836107fa565b91507f557365722068617320616c726561647920766f7465642e0000000000000000006000830152602082019050919050565b600061065f601c836107fa565b91507f5468652073656e646572206973206e6f7420746865206f776e65722e000000006000830152602082019050919050565b600060408301600083015184820360008601526106af82826105d9565b91505060208301516106c460208601826106cf565b508091505092915050565b6106d88161083d565b82525050565b6106e78161083d565b82525050565b600060208201905061070260008301846105ca565b92915050565b6000602082019050818103600083015261072181610612565b9050919050565b6000602082019050818103600083015261074181610652565b9050919050565b600060208201905081810360008301526107628184610692565b905092915050565b600060208201905061077f60008301846106de565b92915050565b6000604051905081810181811067ffffffffffffffff821117156107a857600080fd5b8060405250919050565b600067ffffffffffffffff8211156107c957600080fd5b601f19601f8301169050602081019050919050565b600081519050919050565b600082825260208201905092915050565b600082825260208201905092915050565b60006108168261081d565b9050919050565b600073ffffffffffffffffffffffffffffffffffffffff82169050919050565b6000819050919050565b82818337600083830152505050565b60005b83811015610874578082015181840152602081019050610859565b83811115610883576000848401525b50505050565b6000601f19601f8301169050919050565b6108a38161083d565b81146108ae57600080fd5b5056fea365627a7a7231582071d2bb1e1ad06208470a77e456207936e7c7b57536f6e0552da6f977c8b2b5bf6c6578706572696d656e74616cf564736f6c63430005100040",
  "source": "// SPDX-License-Identifier: MIT\npragma solidity >=0.5.0 <0.9.0;\npragma experimental ABIEncoderV2;\n\ncontract VotingSystem {\n    address public owner;\n    mapping(address => Voter) voters;\n    Candidate[] candidates;\n    uint256 public countOfCandidates;\n\n    struct Voter {\n        uint256 weight;\n        bool voted;\n        uint256 vote;\n    }\n\n    struct Candidate {\n        string name;\n        uint256 voteCount;\n    }\n\n    constructor() public {\n        owner = msg.sender;\n    }\n\n    modifier didNotVoteYet(){\n        require(!voters[msg.sender].voted, \"User has already voted.\");\n        _;\n    }\n\n    modifier isOwner(){\n      require(msg.sender == owner, \"The sender is not the owner.\");\n      _;\n    }\n\n    function addCandidate(string memory _name) public isOwner {\n        candidates.push(Candidate({name: _name, voteCount: 0}));\n        countOfCandidates++;\n    }\n\n    function voteForCandidateAt(uint256 _index) public didNotVoteYet {\n        candidates[_index].voteCount++;\n        voters[msg.sender].voted = true;\n    }\n\n    function getCandidateAt(uint256 _index) public view returns (Candidate memory){\n        return candidates[_index];\n    }\n}",
  "sourcePath": "C:\\Users\\iarex\\OneDrive\\Documents\\dev\\crypto\\dapp-voting\\contracts\\VotingSystem.sol",
  "compiler": {
    "name": "solc",
    "version": "0.5.16+commit.9c3226ce.Emscripten.clang"
  },
  "schemaVersion": "3.4.3",
  "updatedAt": "2022-01-01T19:43:57.549Z",
  "networkType": "ethereum",
  "devdoc": {
    "methods": {}
  },
  "userdoc": {
    "methods": {}
  }
}