{
  "contractName": "VotingSystem",
  "abi": [
    {
      "inputs": [],
      "payable": false,
      "stateMutability": "nonpayable",
      "type": "constructor"
    },
    {
      "constant": true,
      "inputs": [],
      "name": "countOfCandidates",
      "outputs": [
        {
          "internalType": "uint256",
          "name": "",
          "type": "uint256"
        }
      ],
      "payable": false,
      "stateMutability": "view",
      "type": "function"
    },
    {
      "constant": true,
      "inputs": [],
      "name": "owner",
      "outputs": [
        {
          "internalType": "address",
          "name": "",
          "type": "address"
        }
      ],
      "payable": false,
      "stateMutability": "view",
      "type": "function"
    },
    {
      "constant": false,
      "inputs": [
        {
          "internalType": "string",
          "name": "_name",
          "type": "string"
        }
      ],
      "name": "addCandidate",
      "outputs": [],
      "payable": false,
      "stateMutability": "nonpayable",
      "type": "function"
    },
    {
      "constant": false,
      "inputs": [
        {
          "internalType": "uint256",
          "name": "_index",
          "type": "uint256"
        }
      ],
      "name": "voteForCandidateAt",
      "outputs": [],
      "payable": false,
      "stateMutability": "nonpayable",
      "type": "function"
    },
    {
      "constant": true,
      "inputs": [
        {
          "internalType": "uint256",
          "name": "_index",
          "type": "uint256"
        }
      ],
      "name": "getCandidateAt",
      "outputs": [
        {
          "components": [
            {
              "internalType": "string",
              "name": "name",
              "type": "string"
            },
            {
              "internalType": "uint256",
              "name": "voteCount",
              "type": "uint256"
            }
          ],
          "internalType": "struct VotingSystem.Candidate",
          "name": "",
          "type": "tuple"
        }
      ],
      "payable": false,
      "stateMutability": "view",
      "type": "function"
    },
    {
      "constant": true,
      "inputs": [],
      "name": "getUserStatus",
      "outputs": [
        {
          "internalType": "bool",
          "name": "",
          "type": "bool"
        },
        {
          "internalType": "uint256",
          "name": "",
          "type": "uint256"
        }
      ],
      "payable": false,
      "stateMutability": "view",
      "type": "function"
    }
  ],
  "bytecode": "0x608060405234801561001057600080fd5b50336000806101000a81548173ffffffffffffffffffffffffffffffffffffffff021916908373ffffffffffffffffffffffffffffffffffffffff160217905550610a47806100606000396000f3fe608060405234801561001057600080fd5b50600436106100625760003560e01c8063462e91ec1461006757806356f682ae146100835780638da5cb5b146100a15780639ad39552146100bf578063a5a92680146100ef578063e650f5361461010b575b600080fd5b610081600480360361007c919081019061066f565b61012a565b005b61008b61023b565b60405161009891906108b1565b60405180910390f35b6100a9610241565b6040516100b6919061080b565b60405180910390f35b6100d960048036036100d491908101906106b0565b610266565b6040516100e6919061088f565b60405180910390f35b610109600480360361010491908101906106b0565b610347565b005b6101136104a9565b604051610121929190610826565b60405180910390f35b6000809054906101000a900473ffffffffffffffffffffffffffffffffffffffff1673ffffffffffffffffffffffffffffffffffffffff163373ffffffffffffffffffffffffffffffffffffffff16146101b9576040517f08c379a00000000000000000000000000000000000000000000000000000000081526004016101b09061086f565b60405180910390fd5b600260405180604001604052808381526020016000815250908060018154018082558091505090600182039060005260206000209060020201600090919290919091506000820151816000019080519060200190610218929190610547565b506020820151816001015550505060036000815480929190600101919050555050565b60035481565b6000809054906101000a900473ffffffffffffffffffffffffffffffffffffffff1681565b61026e6105c7565b6002828154811061027b57fe5b9060005260206000209060020201604051806040016040529081600082018054600181600116156101000203166002900480601f01602080910402602001604051908101604052809291908181526020018280546001816001161561010002031660029004801561032d5780601f106103025761010080835404028352916020019161032d565b820191906000526020600020905b81548152906001019060200180831161031057829003601f168201915b505050505081526020016001820154815250509050919050565b600160003373ffffffffffffffffffffffffffffffffffffffff1673ffffffffffffffffffffffffffffffffffffffff16815260200190815260200160002060010160009054906101000a900460ff16156103d7576040517f08c379a00000000000000000000000000000000000000000000000000000000081526004016103ce9061084f565b60405180910390fd5b600281815481106103e457fe5b90600052602060002090600202016001016000815480929190600101919050555060018060003373ffffffffffffffffffffffffffffffffffffffff1673ffffffffffffffffffffffffffffffffffffffff16815260200190815260200160002060010160006101000a81548160ff02191690831515021790555080600160003373ffffffffffffffffffffffffffffffffffffffff1673ffffffffffffffffffffffffffffffffffffffff1681526020019081526020016000206002018190555050565b600080600160003373ffffffffffffffffffffffffffffffffffffffff1673ffffffffffffffffffffffffffffffffffffffff16815260200190815260200160002060010160009054906101000a900460ff16600160003373ffffffffffffffffffffffffffffffffffffffff1673ffffffffffffffffffffffffffffffffffffffff16815260200190815260200160002060020154915091509091565b828054600181600116156101000203166002900490600052602060002090601f016020900481019282601f1061058857805160ff19168380011785556105b6565b828001600101855582156105b6579182015b828111156105b557825182559160200191906001019061059a565b5b5090506105c391906105e1565b5090565b604051806040016040528060608152602001600081525090565b61060391905b808211156105ff5760008160009055506001016105e7565b5090565b90565b600082601f83011261061757600080fd5b813561062a610625826108f9565b6108cc565b9150808252602083016020830185838301111561064657600080fd5b61065183828461099a565b50505092915050565b600081359050610669816109ed565b92915050565b60006020828403121561068157600080fd5b600082013567ffffffffffffffff81111561069b57600080fd5b6106a784828501610606565b91505092915050565b6000602082840312156106c257600080fd5b60006106d08482850161065a565b91505092915050565b6106e281610952565b82525050565b6106f181610964565b82525050565b600061070282610925565b61070c8185610930565b935061071c8185602086016109a9565b610725816109dc565b840191505092915050565b600061073d601783610941565b91507f557365722068617320616c726561647920766f7465642e0000000000000000006000830152602082019050919050565b600061077d601c83610941565b91507f5468652073656e646572206973206e6f7420746865206f776e65722e000000006000830152602082019050919050565b600060408301600083015184820360008601526107cd82826106f7565b91505060208301516107e260208601826107ed565b508091505092915050565b6107f681610990565b82525050565b61080581610990565b82525050565b600060208201905061082060008301846106d9565b92915050565b600060408201905061083b60008301856106e8565b61084860208301846107fc565b9392505050565b6000602082019050818103600083015261086881610730565b9050919050565b6000602082019050818103600083015261088881610770565b9050919050565b600060208201905081810360008301526108a981846107b0565b905092915050565b60006020820190506108c660008301846107fc565b92915050565b6000604051905081810181811067ffffffffffffffff821117156108ef57600080fd5b8060405250919050565b600067ffffffffffffffff82111561091057600080fd5b601f19601f8301169050602081019050919050565b600081519050919050565b600082825260208201905092915050565b600082825260208201905092915050565b600061095d82610970565b9050919050565b60008115159050919050565b600073ffffffffffffffffffffffffffffffffffffffff82169050919050565b6000819050919050565b82818337600083830152505050565b60005b838110156109c75780820151818401526020810190506109ac565b838111156109d6576000848401525b50505050565b6000601f19601f8301169050919050565b6109f681610990565b8114610a0157600080fd5b5056fea365627a7a72315820802b53ea726a9f7e00f804a734e51245a3af59540e184aa68d42603eaa9813dd6c6578706572696d656e74616cf564736f6c63430005100040",
  "source": "// SPDX-License-Identifier: MIT\npragma solidity >=0.5.0 <0.9.0;\npragma experimental ABIEncoderV2;\n\ncontract VotingSystem {\n    address public owner;\n    mapping(address => Voter) voters;\n    Candidate[] candidates;\n    uint256 public countOfCandidates;\n\n    struct Voter {\n        uint256 weight;\n        bool voted;\n        uint256 vote;\n    }\n\n    struct Candidate {\n        string name;\n        uint256 voteCount;\n    }\n\n    constructor() public {\n        owner = msg.sender;\n    }\n\n    modifier didNotVoteYet(){\n        require(!voters[msg.sender].voted, \"User has already voted.\");\n        _;\n    }\n\n    modifier isOwner(){\n      require(msg.sender == owner, \"The sender is not the owner.\");\n      _;\n    }\n\n    function addCandidate(string memory _name) public isOwner {\n        candidates.push(Candidate({name: _name, voteCount: 0}));\n        countOfCandidates++;\n    }\n\n    function voteForCandidateAt(uint256 _index) public didNotVoteYet {\n        candidates[_index].voteCount++;\n        voters[msg.sender].voted = true;\n        voters[msg.sender].vote = _index;\n    }\n\n    function getCandidateAt(uint256 _index) public view returns (Candidate memory){\n        return candidates[_index];\n    }\n\n    function getUserStatus() public view returns (bool, uint256){\n        return (voters[msg.sender].voted, voters[msg.sender].vote);\n    }\n}",
  "sourcePath": "C:\\Users\\iarex\\OneDrive\\Documents\\dev\\crypto\\dapp-voting\\contracts\\VotingSystem.sol",
  "compiler": {
    "name": "solc",
    "version": "0.5.16+commit.9c3226ce.Emscripten.clang"
  },
  "schemaVersion": "3.4.3",
  "updatedAt": "2022-01-02T18:03:52.781Z",
  "networkType": "ethereum",
  "devdoc": {
    "methods": {}
  },
  "userdoc": {
    "methods": {}
  }
}