{
  "contractName": "VotingSystem",
  "abi": [
    {
      "inputs": [],
      "payable": false,
      "stateMutability": "nonpayable",
      "type": "constructor"
    },
    {
      "constant": true,
      "inputs": [],
      "name": "owner",
      "outputs": [
        {
          "internalType": "address",
          "name": "",
          "type": "address"
        }
      ],
      "payable": false,
      "stateMutability": "view",
      "type": "function"
    },
    {
      "constant": false,
      "inputs": [
        {
          "internalType": "string",
          "name": "_name",
          "type": "string"
        }
      ],
      "name": "addCandidate",
      "outputs": [],
      "payable": false,
      "stateMutability": "nonpayable",
      "type": "function"
    },
    {
      "constant": false,
      "inputs": [
        {
          "internalType": "uint256",
          "name": "_index",
          "type": "uint256"
        }
      ],
      "name": "voteForCandidateAt",
      "outputs": [],
      "payable": false,
      "stateMutability": "nonpayable",
      "type": "function"
    },
    {
      "constant": true,
      "inputs": [
        {
          "internalType": "uint256",
          "name": "_index",
          "type": "uint256"
        }
      ],
      "name": "getCandidateAt",
      "outputs": [
        {
          "components": [
            {
              "internalType": "string",
              "name": "name",
              "type": "string"
            },
            {
              "internalType": "uint256",
              "name": "voteCount",
              "type": "uint256"
            }
          ],
          "internalType": "struct VotingSystem.Candidate",
          "name": "",
          "type": "tuple"
        }
      ],
      "payable": false,
      "stateMutability": "view",
      "type": "function"
    }
  ],
  "bytecode": "0x608060405234801561001057600080fd5b50336000806101000a81548173ffffffffffffffffffffffffffffffffffffffff021916908373ffffffffffffffffffffffffffffffffffffffff16021790555061089b806100606000396000f3fe608060405234801561001057600080fd5b506004361061004c5760003560e01c8063462e91ec146100515780638da5cb5b1461006d5780639ad395521461008b578063a5a92680146100bb575b600080fd5b61006b60048036036100669190810190610531565b6100d7565b005b6100756101e8565b60405161008291906106af565b60405180910390f35b6100a560048036036100a09190810190610572565b61020d565b6040516100b2919061070a565b60405180910390f35b6100d560048036036100d09190810190610572565b6102ee565b005b6000809054906101000a900473ffffffffffffffffffffffffffffffffffffffff1673ffffffffffffffffffffffffffffffffffffffff163373ffffffffffffffffffffffffffffffffffffffff1614610166576040517f08c379a000000000000000000000000000000000000000000000000000000000815260040161015d906106ea565b60405180910390fd5b6002604051806040016040528083815260200160008152509080600181540180825580915050906001820390600052602060002090600202016000909192909190915060008201518160000190805190602001906101c5929190610409565b506020820151816001015550505060036000815480929190600101919050555050565b6000809054906101000a900473ffffffffffffffffffffffffffffffffffffffff1681565b610215610489565b6002828154811061022257fe5b9060005260206000209060020201604051806040016040529081600082018054600181600116156101000203166002900480601f0160208091040260200160405190810160405280929190818152602001828054600181600116156101000203166002900480156102d45780601f106102a9576101008083540402835291602001916102d4565b820191906000526020600020905b8154815290600101906020018083116102b757829003601f168201915b505050505081526020016001820154815250509050919050565b600160003373ffffffffffffffffffffffffffffffffffffffff1673ffffffffffffffffffffffffffffffffffffffff16815260200190815260200160002060010160009054906101000a900460ff161561037e576040517f08c379a0000000000000000000000000000000000000000000000000000000008152600401610375906106ca565b60405180910390fd5b6002818154811061038b57fe5b90600052602060002090600202016001016000815480929190600101919050555060018060003373ffffffffffffffffffffffffffffffffffffffff1673ffffffffffffffffffffffffffffffffffffffff16815260200190815260200160002060010160006101000a81548160ff02191690831515021790555050565b828054600181600116156101000203166002900490600052602060002090601f016020900481019282601f1061044a57805160ff1916838001178555610478565b82800160010185558215610478579182015b8281111561047757825182559160200191906001019061045c565b5b50905061048591906104a3565b5090565b604051806040016040528060608152602001600081525090565b6104c591905b808211156104c15760008160009055506001016104a9565b5090565b90565b600082601f8301126104d957600080fd5b81356104ec6104e782610759565b61072c565b9150808252602083016020830185838301111561050857600080fd5b6105138382846107ee565b50505092915050565b60008135905061052b81610841565b92915050565b60006020828403121561054357600080fd5b600082013567ffffffffffffffff81111561055d57600080fd5b610569848285016104c8565b91505092915050565b60006020828403121561058457600080fd5b60006105928482850161051c565b91505092915050565b6105a4816107b2565b82525050565b60006105b582610785565b6105bf8185610790565b93506105cf8185602086016107fd565b6105d881610830565b840191505092915050565b60006105f06017836107a1565b91507f557365722068617320616c726561647920766f7465642e0000000000000000006000830152602082019050919050565b6000610630601c836107a1565b91507f5468652073656e646572206973206e6f7420746865206f776e65722e000000006000830152602082019050919050565b6000604083016000830151848203600086015261068082826105aa565b915050602083015161069560208601826106a0565b508091505092915050565b6106a9816107e4565b82525050565b60006020820190506106c4600083018461059b565b92915050565b600060208201905081810360008301526106e3816105e3565b9050919050565b6000602082019050818103600083015261070381610623565b9050919050565b600060208201905081810360008301526107248184610663565b905092915050565b6000604051905081810181811067ffffffffffffffff8211171561074f57600080fd5b8060405250919050565b600067ffffffffffffffff82111561077057600080fd5b601f19601f8301169050602081019050919050565b600081519050919050565b600082825260208201905092915050565b600082825260208201905092915050565b60006107bd826107c4565b9050919050565b600073ffffffffffffffffffffffffffffffffffffffff82169050919050565b6000819050919050565b82818337600083830152505050565b60005b8381101561081b578082015181840152602081019050610800565b8381111561082a576000848401525b50505050565b6000601f19601f8301169050919050565b61084a816107e4565b811461085557600080fd5b5056fea365627a7a723158202c4410c07ba506c7a94effd80e8fb104daa973dd52ec46fa4c2b47f9ba5d54606c6578706572696d656e74616cf564736f6c63430005100040",
  "source": "// SPDX-License-Identifier: MIT\npragma solidity >=0.4.21 <0.7.0;\npragma experimental ABIEncoderV2;\n\ncontract VotingSystem {\n    address public owner;\n    mapping(address => Voter) voters;\n    Candidate[] candidates;\n    uint256 countOfCandidates;\n\n    struct Voter {\n        uint256 weight;\n        bool voted;\n        uint256 vote;\n    }\n\n    struct Candidate {\n        string name;\n        uint256 voteCount;\n    }\n\n    constructor() public {\n        owner = msg.sender;\n    }\n\n    modifier didNotVoteYet(){\n        require(!voters[msg.sender].voted, \"User has already voted.\");\n        _;\n    }\n\n    modifier isOwner(){\n      require(msg.sender == owner, \"The sender is not the owner.\");\n      _;\n    }\n\n    function addCandidate(string memory _name) public isOwner {\n        candidates.push(Candidate({name: _name, voteCount: 0}));\n        countOfCandidates++;\n    }\n\n    function voteForCandidateAt(uint256 _index) public didNotVoteYet {\n        candidates[_index].voteCount++;\n        voters[msg.sender].voted = true;\n    }\n\n    function getCandidateAt(uint256 _index) public view returns (Candidate memory){\n        return candidates[_index];\n    }\n}",
  "sourcePath": "C:\\Users\\iarex\\OneDrive\\Documents\\dev\\crypto\\dapp-voting\\contracts\\VotingSystem.sol",
  "compiler": {
    "name": "solc",
    "version": "0.5.16+commit.9c3226ce.Emscripten.clang"
  },
  "schemaVersion": "3.4.3",
  "updatedAt": "2022-01-01T18:56:06.260Z",
  "networkType": "ethereum",
  "devdoc": {
    "methods": {}
  },
  "userdoc": {
    "methods": {}
  }
}